:03000000020D836B
:0C0D8300787FE4F6D8FD758169020DCA86
:100F33000E3E456E74657220317374206E6F20000F
:100F4300104C456E746572206F70657261746F72B8
:100F530020000E5C456E74657220326E64206E6FE5
:020F630020006C
:100E0F00120EFB7B007A00793E120FD47F01120F76
:100E1F0093120CC88F0C8E0B8D0A8C097B007A00F5
:100E2F00794C120FD41208008F087F01120F937B99
:100E3F00007A00795C120FD47F01120F93120CC845
:100E4F008F108E0F8D0E8C0D8F188E178D168C1593
:0E0E5F00850819AF0CAE0BAD0AAC09120B19C9
:020E6D0080A063
:080E6F007FF47E017D007C0090
:080E77008F3D8E3C8D3B8C3A4F
:100E7F00AF3DAE3CAD3BAC3AEC4D4E4F60297F736E
:100E8F00EFD394007480948040031F80F3E53D24DA
:100E9F00FFF53DE53C34FFF53CE53B34FFF53BE525
:070EAF003A34FFF53A80C957
:010EB6002219
:100F9300AB077FE87E03120E738BA0C2B5C2B6D235
:100FA300B77F327E00120E73C2B77F327E007D00A0
:050FB3007C00020E7736
:100FB8008FA0D2B5C2B6D2B77F327E00120E73C2EE
:0C0FC800B77F327E007D007C00020E77B7
:100EFB007FC87E00120E737F30120F937FC87E0067
:100F0B00120E737F30120F937FC87E00120E737F09
:100F1B0038120F937F0F120F937F01120F937F06DF
:080F2B00120F937F80020F9367
:100800007F6DEF643070030209B8EF64317003024A
:1008100009B8EF643270030209B8EF643370030261
:1008200009B8EF643470030209B8EF64357003024D
:1008300009B8EF643670030209B8EF643770030239
:1008400009B8EF643870030209B8EF643970030225
:1008500009B8EF642F70030209B8EF642A7003022D
:1008600009B8EF642B70030209B8EF642D7003021E
:1008700009B8EF646370030209B8EF643D700302C6
:1008800009B8C290D291D292D29320900E20940BAC
:100890007F37120FB8120E6F7F372220900E2095EF
:1008A0000B7F38120FB8120E6F7F382220900E2067
:1008B000960B7F39120FB8120E6F7F392220900EDF
:1008C00020970B7F2F120FB8120E6F7F2F22D2901E
:1008D000C291D292D29320910E20940B7F34120FAA
:1008E000B8120E6F7F342220910E20950B7F3512A7
:1008F0000FB8120E6F7F352220910E20960B7F3697
:10090000120FB8120E6F7F362220910E20970B7FA8
:100910002A120FB8120E6F7F2A22D290D291C29261
:10092000D29320920E20940B7F31120FB8120E6FCB
:100930007F312220920E20950B7F32120FB8120EBB
:100940006F7F322220920E20960B7F33120FB81247
:100950000E6F7F332220920E20970B7F2D120FB83F
:10096000120E6F7F2D22D290D291D292C2932093F9
:100970000E20940B7F63120FB8120E6F7F6322203C
:10098000930E20950B7F30120FB8120E6F7F30221E
:1009900020930E20960B7F3D120FB8120E6F7F3DF5
:1009A000223093030208023097030208027F2B12C1
:0A09B0000FB8120E6F7F2B227F009C
:0109BA00221A
:100FD4001209BBFF600C120FB8740129F9E43AFA44
:030FE40080EE227A
:100CC800120800AB07E4F51CF51BF51AF519F51D1C
:100CD800F51EEB642B6036EB642D6031EB642F60FE
:100CE8002CEB642A6027EB64636022EB643D601D93
:100CF8007411251EF8A603051EE51E7002051D12B7
:100D08000800AB077F1E7E00120E7380C5E4F51F36
:100D1800F520C3E520951EE51D6480F8E51F648075
:100D280098504AAD20AC1F7F0A7E00120F66C3E5BB
:100D38001E9520FD74102DF8E6FD3395E0FCED249A
:100D4800D0FDEC34FFFC1209D4EE3395E0FDFCE550
:100D58001C2FF51CE51B3EF51BE51A3DF51AE51998
:100D68003CF5190520E52070A9051F80A57F011213
:0A0D78000F93AF1CAE1BAD1AAC19AF
:010D8200224E
:080F66008E218F228C238D24C3
:100F6E007F017E00E4FBFAC3EB9524E5236480F851
:100F7E00EA648098500EAC21AD221209D40BBB004E
:040F8E00010A80E3F1
:010F9200223C
:080BF7008F258E248D238C2232
:100BFF00E4F539EC334002806074FFFFFEFDFCAB7F
:100C0F0025AA24A923A8221209E68F298E288D2729
:100C1F008C267F2D120FB8E4FFFEFDFCAB29AA280E
:100C2F00A927A826D3120A354039E47B0AFAF9F826
:100C3F00AF29AE28AD27AC26120EB7EB2430FF74C8
:100C4F002A2539F8A6070539AF29AE28AD27AC26D6
:100C5F00E47B0AFAF9F8120EB78F298E288D278CAC
:100C6F002680B4AF39EF3395E04F70057F30020F18
:100C7F00B8742A2539F8E4F6FFE539A2E713C364FF
:100C8F0080F8EF6480985027742A2FF8E6FEEFFD66
:100C9F003395E0FCAB39C3EB9DFD74292DF8E6FBD2
:100CAF00742A2FF8A60374292DF8A6060F80CA7B85
:080CBF00007A00792A120FD41B
:010CC700220A
:080B19008F148E138D128C1154
:100B2100E4F51DF51CF51BF51AE51924D670030231
:100B31000BD024FD602624FE603D24046003020BDB
:100B4100EBE5142518F51DE5133517F51CE51235F0
:100B510016F51BE5113515F51A020BEBC3E51495D6
:100B610018F51DE5139517F51CE5129516F51BE50E
:100B7100119515F51A8073AB18AA17A916A815AF08
:100B810014AE13AD12AC11120EB78F1D8E1C8D1B3E
:100B91008C1AAB18AA17A916A815AF14AE13AD126B
:100BA100AC11120EB7AC00AD01AE02AF038F218EB6
:100BB100208D1F8C1EAF1DAE1CAD1BAC1A120BF786
:100BC1007F20120FB8AF21AE20AD1FAC1E8023AF26
:100BD10018AE17AD16AC15AB14AA13A912A81112B1
:100BE10009E68F1D8E1C8D1B8C1AAF1DAE1CAD1B13
:050BF100AC1A120BF725
:010BF60022DC
:100D8F00020E0FE493A3F8E493A34003F68001F25D
:100D9F0008DFF48029E493A3F85407240CC8C33365
:100DAF00C4540F4420C8834004F456800146F6DF34
:100DBF00E4800B0102040810204080900F33E47E82
:100DCF00019360BCA3FF543F30E509541FFEE49329
:100DDF00A360010ECF54C025E060A840B8E493A3F0
:100DEF00FAE493A3F8E493A3C8C582C8CAC583CA1B
:100DFF00F0A3C8C582C8CAC583CADFE9DEE780BED3
:010F6500008B
:1009BB00BB010689828A83E0225002E722BBFE023A
:0909CB00E32289828A83E493226D
:1009D400EF8DF0A4A8F0CF8CF0A428CE8DF0A42E37
:0209E400FE22F1
:1009E600E88FF0A4CC8BF0A42CFCE98EF0A42CFCB0
:1009F6008AF0EDA42CFCEA8EF0A4CDA8F08BF0A42E
:100A06002DCC3825F0FDE98FF0A42CCD35F0FCEB8C
:100A16008EF0A4FEA9F0EB8FF0A4CFC5F02ECD3951
:0F0A2600FEE43CFCEAA42DCE35F0FDE43CFC22BE
:100EB700C2D5E830E70FB2D5E4C39BFBE49AFAE466
:100EC70099F9E498F8EC30E717B2D5120EED120A4B
:100ED70087E4C39BFBE49AFAE499F9E498F8800362
:100EE700120A8730D50DE4C39FFFE49EFEE49DFD03
:040EF700E49CFC2259
:100A3500EB9FF5F0EA9E42F0E99D42F0EC6480C838
:060A450064809845F022D8
:100A4B0075F008758200EF2FFFEE33FECD33CDCC62
:100A5B0033CCC58233C5829BED9AEC99E5829840E5
:100A6B000CF582EE9BFEED9AFDEC99FC0FD5F0D6C2
:100A7B00E4CEFBE4CDFAE4CCF9A88222B800C1B9EC
:100A8B000059BA002DEC8BF084CFCECDFCE5F0CB2A
:100A9B00F97818EF2FFFEE33FEED33FDEC33FCEB63
:100AAB0033FB10D703994004EB99FB0FD8E5E4F91E
:100ABB00FA227818EF2FFFEE33FEED33FDEC33FC0B
:100ACB00C933C910D7059BE99A4007EC9BFCE99AFF
:100ADB00F90FD8E0E4C9FAE4CCFB2275F010EF2F44
:100AEB00FFEE33FEED33FDCC33CCC833C810D70744
:100AFB009BEC9AE899400AED9BFDEC9AFCE899F87F
:0E0B0B000FD5F0DAE4CDFBE4CCFAE4C8F92211
:00000001FF
